{
  "address": "0xAdb5047623dDe3535fdb91811aaEce731f2574C9",
  "abi": [
    {
      "inputs": [
        {
          "internalType": "address",
          "name": "_upvoteNFT",
          "type": "address"
        },
        {
          "internalType": "address",
          "name": "_priceFeed",
          "type": "address"
        },
        {
          "internalType": "uint256",
          "name": "_feedDecimals",
          "type": "uint256"
        },
        {
          "internalType": "uint256",
          "name": "_usdUpvotePriceInWei",
          "type": "uint256"
        },
        {
          "internalType": "address",
          "name": "_treasury",
          "type": "address"
        }
      ],
      "stateMutability": "nonpayable",
      "type": "constructor"
    },
    {
      "anonymous": false,
      "inputs": [
        {
          "indexed": true,
          "internalType": "address",
          "name": "owner",
          "type": "address"
        },
        {
          "indexed": true,
          "internalType": "address",
          "name": "approved",
          "type": "address"
        },
        {
          "indexed": true,
          "internalType": "uint256",
          "name": "tokenId",
          "type": "uint256"
        }
      ],
      "name": "Approval",
      "type": "event"
    },
    {
      "anonymous": false,
      "inputs": [
        {
          "indexed": true,
          "internalType": "address",
          "name": "owner",
          "type": "address"
        },
        {
          "indexed": true,
          "internalType": "address",
          "name": "operator",
          "type": "address"
        },
        {
          "indexed": false,
          "internalType": "bool",
          "name": "approved",
          "type": "bool"
        }
      ],
      "name": "ApprovalForAll",
      "type": "event"
    },
    {
      "anonymous": false,
      "inputs": [
        {
          "indexed": true,
          "internalType": "address",
          "name": "previousOwner",
          "type": "address"
        },
        {
          "indexed": true,
          "internalType": "address",
          "name": "newOwner",
          "type": "address"
        }
      ],
      "name": "OwnershipTransferred",
      "type": "event"
    },
    {
      "anonymous": false,
      "inputs": [
        {
          "indexed": true,
          "internalType": "address",
          "name": "from",
          "type": "address"
        },
        {
          "indexed": true,
          "internalType": "address",
          "name": "to",
          "type": "address"
        },
        {
          "indexed": true,
          "internalType": "uint256",
          "name": "tokenId",
          "type": "uint256"
        }
      ],
      "name": "Transfer",
      "type": "event"
    },
    {
      "inputs": [
        {
          "internalType": "address",
          "name": "to",
          "type": "address"
        },
        {
          "internalType": "uint256",
          "name": "tokenId",
          "type": "uint256"
        }
      ],
      "name": "approve",
      "outputs": [],
      "stateMutability": "nonpayable",
      "type": "function"
    },
    {
      "inputs": [
        {
          "internalType": "address",
          "name": "owner",
          "type": "address"
        }
      ],
      "name": "balanceOf",
      "outputs": [
        {
          "internalType": "uint256",
          "name": "",
          "type": "uint256"
        }
      ],
      "stateMutability": "view",
      "type": "function"
    },
    {
      "inputs": [
        {
          "internalType": "uint256",
          "name": "tokenId",
          "type": "uint256"
        }
      ],
      "name": "getApproved",
      "outputs": [
        {
          "internalType": "address",
          "name": "",
          "type": "address"
        }
      ],
      "stateMutability": "view",
      "type": "function"
    },
    {
      "inputs": [
        {
          "internalType": "uint256",
          "name": "maticAmount",
          "type": "uint256"
        }
      ],
      "name": "getConversionRate",
      "outputs": [
        {
          "internalType": "uint256",
          "name": "",
          "type": "uint256"
        }
      ],
      "stateMutability": "view",
      "type": "function"
    },
    {
      "inputs": [],
      "name": "getPrice",
      "outputs": [
        {
          "internalType": "uint256",
          "name": "",
          "type": "uint256"
        }
      ],
      "stateMutability": "view",
      "type": "function"
    },
    {
      "inputs": [
        {
          "internalType": "address",
          "name": "",
          "type": "address"
        },
        {
          "internalType": "uint256",
          "name": "",
          "type": "uint256"
        }
      ],
      "name": "hasUpvoted",
      "outputs": [
        {
          "internalType": "bool",
          "name": "",
          "type": "bool"
        }
      ],
      "stateMutability": "view",
      "type": "function"
    },
    {
      "inputs": [
        {
          "internalType": "address",
          "name": "owner",
          "type": "address"
        },
        {
          "internalType": "address",
          "name": "operator",
          "type": "address"
        }
      ],
      "name": "isApprovedForAll",
      "outputs": [
        {
          "internalType": "bool",
          "name": "",
          "type": "bool"
        }
      ],
      "stateMutability": "view",
      "type": "function"
    },
    {
      "inputs": [
        {
          "internalType": "string[]",
          "name": "_uri",
          "type": "string[]"
        }
      ],
      "name": "mintDAOs",
      "outputs": [],
      "stateMutability": "nonpayable",
      "type": "function"
    },
    {
      "inputs": [],
      "name": "name",
      "outputs": [
        {
          "internalType": "string",
          "name": "",
          "type": "string"
        }
      ],
      "stateMutability": "view",
      "type": "function"
    },
    {
      "inputs": [],
      "name": "owner",
      "outputs": [
        {
          "internalType": "address",
          "name": "",
          "type": "address"
        }
      ],
      "stateMutability": "view",
      "type": "function"
    },
    {
      "inputs": [
        {
          "internalType": "uint256",
          "name": "tokenId",
          "type": "uint256"
        }
      ],
      "name": "ownerOf",
      "outputs": [
        {
          "internalType": "address",
          "name": "",
          "type": "address"
        }
      ],
      "stateMutability": "view",
      "type": "function"
    },
    {
      "inputs": [],
      "name": "renounceOwnership",
      "outputs": [],
      "stateMutability": "nonpayable",
      "type": "function"
    },
    {
      "inputs": [
        {
          "internalType": "address",
          "name": "from",
          "type": "address"
        },
        {
          "internalType": "address",
          "name": "to",
          "type": "address"
        },
        {
          "internalType": "uint256",
          "name": "tokenId",
          "type": "uint256"
        }
      ],
      "name": "safeTransferFrom",
      "outputs": [],
      "stateMutability": "nonpayable",
      "type": "function"
    },
    {
      "inputs": [
        {
          "internalType": "address",
          "name": "from",
          "type": "address"
        },
        {
          "internalType": "address",
          "name": "to",
          "type": "address"
        },
        {
          "internalType": "uint256",
          "name": "tokenId",
          "type": "uint256"
        },
        {
          "internalType": "bytes",
          "name": "_data",
          "type": "bytes"
        }
      ],
      "name": "safeTransferFrom",
      "outputs": [],
      "stateMutability": "nonpayable",
      "type": "function"
    },
    {
      "inputs": [
        {
          "internalType": "address",
          "name": "operator",
          "type": "address"
        },
        {
          "internalType": "bool",
          "name": "approved",
          "type": "bool"
        }
      ],
      "name": "setApprovalForAll",
      "outputs": [],
      "stateMutability": "nonpayable",
      "type": "function"
    },
    {
      "inputs": [
        {
          "internalType": "bytes4",
          "name": "interfaceId",
          "type": "bytes4"
        }
      ],
      "name": "supportsInterface",
      "outputs": [
        {
          "internalType": "bool",
          "name": "",
          "type": "bool"
        }
      ],
      "stateMutability": "view",
      "type": "function"
    },
    {
      "inputs": [],
      "name": "symbol",
      "outputs": [
        {
          "internalType": "string",
          "name": "",
          "type": "string"
        }
      ],
      "stateMutability": "view",
      "type": "function"
    },
    {
      "inputs": [],
      "name": "tokenIdCounter",
      "outputs": [
        {
          "internalType": "uint256",
          "name": "",
          "type": "uint256"
        }
      ],
      "stateMutability": "view",
      "type": "function"
    },
    {
      "inputs": [
        {
          "internalType": "uint256",
          "name": "tokenId",
          "type": "uint256"
        }
      ],
      "name": "tokenURI",
      "outputs": [
        {
          "internalType": "string",
          "name": "",
          "type": "string"
        }
      ],
      "stateMutability": "view",
      "type": "function"
    },
    {
      "inputs": [
        {
          "internalType": "address",
          "name": "from",
          "type": "address"
        },
        {
          "internalType": "address",
          "name": "to",
          "type": "address"
        },
        {
          "internalType": "uint256",
          "name": "tokenId",
          "type": "uint256"
        }
      ],
      "name": "transferFrom",
      "outputs": [],
      "stateMutability": "nonpayable",
      "type": "function"
    },
    {
      "inputs": [
        {
          "internalType": "address",
          "name": "newOwner",
          "type": "address"
        }
      ],
      "name": "transferOwnership",
      "outputs": [],
      "stateMutability": "nonpayable",
      "type": "function"
    },
    {
      "inputs": [],
      "name": "treasury",
      "outputs": [
        {
          "internalType": "address",
          "name": "",
          "type": "address"
        }
      ],
      "stateMutability": "view",
      "type": "function"
    },
    {
      "inputs": [
        {
          "internalType": "uint256",
          "name": "_id",
          "type": "uint256"
        }
      ],
      "name": "upvote",
      "outputs": [],
      "stateMutability": "payable",
      "type": "function"
    },
    {
      "inputs": [],
      "name": "upvoteNFT",
      "outputs": [
        {
          "internalType": "contract UpvoteERC1155",
          "name": "",
          "type": "address"
        }
      ],
      "stateMutability": "view",
      "type": "function"
    },
    {
      "inputs": [],
      "name": "usdUpvotePriceInWei",
      "outputs": [
        {
          "internalType": "uint256",
          "name": "",
          "type": "uint256"
        }
      ],
      "stateMutability": "view",
      "type": "function"
    },
    {
      "inputs": [
        {
          "internalType": "uint256",
          "name": "",
          "type": "uint256"
        },
        {
          "internalType": "uint256",
          "name": "",
          "type": "uint256"
        }
      ],
      "name": "whoUpvoted",
      "outputs": [
        {
          "internalType": "address",
          "name": "",
          "type": "address"
        }
      ],
      "stateMutability": "view",
      "type": "function"
    },
    {
      "inputs": [],
      "name": "withdrawFunds",
      "outputs": [],
      "stateMutability": "nonpayable",
      "type": "function"
    }
  ],
  "transactionHash": "0xf64ed2a3126ef0fdd7843512624a247f39f2865df3f0fe1e359467719baaf142",
  "args": [
    "0x88d9565Fbd6C0599A84b23233437e6d2428F4018",
    "0xd0D5e3DB44DE05E9F294BB0a3bEEaF030DE24Ada",
    "8",
    "100000000000000000",
    "0xDeAdA90a7B242FC396eB277717a31e67A6005c93"
  ],
  "solcInputHash": "76b33eabb7525421be0cb97d1e5d8c9c",
  "bytecode": "0x60806040523480156200001157600080fd5b506040516200207838038062002078833981016040819052620000349162000217565b6040805180820182526007815266111053d21d5b9d60ca1b6020808301918252835180850190945260048452631112139560e21b9084015281519192916200007f9160009162000154565b5080516200009590600190602084019062000154565b505050620000b2620000ac620000fe60201b60201c565b62000102565b600880546001600160a01b039687166001600160a01b031991821617909155600c805495871695821695909517909455600d92909255600e55600f8054919093169116179055620002b2565b3390565b600680546001600160a01b038381166001600160a01b0319831681179093556040519116919082907f8be0079c531659141344cd1fd0a4f28419497f9722a3daafe3b4186f6b6457e090600090a35050565b828054620001629062000275565b90600052602060002090601f016020900481019282620001865760008555620001d1565b82601f10620001a157805160ff1916838001178555620001d1565b82800160010185558215620001d1579182015b82811115620001d1578251825591602001919060010190620001b4565b50620001df929150620001e3565b5090565b5b80821115620001df5760008155600101620001e4565b80516001600160a01b03811681146200021257600080fd5b919050565b600080600080600060a086880312156200023057600080fd5b6200023b86620001fa565b94506200024b60208701620001fa565b935060408601519250606086015191506200026960808701620001fa565b90509295509295909350565b600181811c908216806200028a57607f821691505b60208210811415620002ac57634e487b7160e01b600052602260045260246000fd5b50919050565b611db680620002c26000396000f3fe60806040526004361061019c5760003560e01c80636e5b6b28116100ec578063a22cb4651161008a578063c87b56dd11610064578063c87b56dd1461048c578063e985e9c5146104ac578063eac38db5146104cc578063f2fde38b146104ec57600080fd5b8063a22cb46514610436578063b88d4fde14610456578063c86696ac1461047657600080fd5b80638da5cb5b116100c65780638da5cb5b146103d857806395d89b41146103f657806398bdf6f51461040b57806398d5fdca1461042157600080fd5b80636e5b6b281461037557806370a08231146103a3578063715018a6146103c357600080fd5b806316bb54031161015957806342842e0e1161013357806342842e0e146102f55780634bcca43f1461031557806361d027b3146103355780636352211e1461035557600080fd5b806316bb54031461028557806323b872dd146102c057806324600fc3146102e057600080fd5b806301ddf070146101a157806301ffc9a7146101b657806306fdde03146101eb578063081812fc1461020d578063095ea7b31461024557806312ac3cb214610265575b600080fd5b6101b46101af3660046118a4565b61050c565b005b3480156101c257600080fd5b506101d66101d136600461186a565b610676565b60405190151581526020015b60405180910390f35b3480156101f757600080fd5b506102006106c8565b6040516101e291906119b9565b34801561021957600080fd5b5061022d6102283660046118a4565b61075a565b6040516001600160a01b0390911681526020016101e2565b34801561025157600080fd5b506101b46102603660046117cb565b6107ef565b34801561027157600080fd5b506101b46102803660046117f5565b610905565b34801561029157600080fd5b506101d66102a03660046117cb565b600a60209081526000928352604080842090915290825290205460ff1681565b3480156102cc57600080fd5b506101b46102db366004611677565b6109d1565b3480156102ec57600080fd5b506101b4610a02565b34801561030157600080fd5b506101b4610310366004611677565b610aba565b34801561032157600080fd5b5061022d6103303660046118bd565b610ad5565b34801561034157600080fd5b50600f5461022d906001600160a01b031681565b34801561036157600080fd5b5061022d6103703660046118a4565b610b0d565b34801561038157600080fd5b506103956103903660046118a4565b610b84565b6040519081526020016101e2565b3480156103af57600080fd5b506103956103be366004611622565b610bb8565b3480156103cf57600080fd5b506101b4610c3f565b3480156103e457600080fd5b506006546001600160a01b031661022d565b34801561040257600080fd5b50610200610c75565b34801561041757600080fd5b5061039560075481565b34801561042d57600080fd5b50610395610c84565b34801561044257600080fd5b506101b461045136600461178f565b610d3d565b34801561046257600080fd5b506101b46104713660046116b3565b610e02565b34801561048257600080fd5b50610395600e5481565b34801561049857600080fd5b506102006104a73660046118a4565b610e3a565b3480156104b857600080fd5b506101d66104c7366004611644565b610edc565b3480156104d857600080fd5b5060085461022d906001600160a01b031681565b3480156104f857600080fd5b506101b4610507366004611622565b610f0a565b336000908152600a6020908152604080832084845290915290205460ff161561056e5760405162461bcd60e51b815260206004820152600f60248201526e105b1c9958591e48155c1d9bdd1959608a1b60448201526064015b60405180910390fd5b600061057934610b84565b9050600e548110156105bf5760405162461bcd60e51b815260206004820152600f60248201526e53656e64206d6f7265204d6174696360881b6044820152606401610565565b6008546040516394bf804d60e01b8152600481018490523360248201526001600160a01b03909116906394bf804d90604401600060405180830381600087803b15801561060b57600080fd5b505af115801561061f573d6000803e3d6000fd5b5050336000818152600a60209081526040808320978352968152868220805460ff19166001908117909155600b8252968220805497880181558252902090940180546001600160a01b031916909417909355505050565b60006001600160e01b031982166380ac58cd60e01b14806106a757506001600160e01b03198216635b5e139f60e01b145b806106c257506301ffc9a760e01b6001600160e01b03198316145b92915050565b6060600080546106d790611cd2565b80601f016020809104026020016040519081016040528092919081815260200182805461070390611cd2565b80156107505780601f1061072557610100808354040283529160200191610750565b820191906000526020600020905b81548152906001019060200180831161073357829003601f168201915b5050505050905090565b6000818152600260205260408120546001600160a01b03166107d35760405162461bcd60e51b815260206004820152602c60248201527f4552433732313a20617070726f76656420717565727920666f72206e6f6e657860448201526b34b9ba32b73a103a37b5b2b760a11b6064820152608401610565565b506000908152600460205260409020546001600160a01b031690565b60006107fa82610b0d565b9050806001600160a01b0316836001600160a01b031614156108685760405162461bcd60e51b815260206004820152602160248201527f4552433732313a20617070726f76616c20746f2063757272656e74206f776e656044820152603960f91b6064820152608401610565565b336001600160a01b038216148061088457506108848133610edc565b6108f65760405162461bcd60e51b815260206004820152603860248201527f4552433732313a20617070726f76652063616c6c6572206973206e6f74206f7760448201527f6e6572206e6f7220617070726f76656420666f7220616c6c00000000000000006064820152608401610565565b6109008383610fa2565b505050565b6006546001600160a01b0316331461092f5760405162461bcd60e51b815260040161056590611a1e565b6007548160005b818110156109b357600061094a8285611af2565b905085858381811061095e5761095e611d3e565b90506020028101906109709190611aa4565b6000838152600960205260409020610989929091611553565b50600f546109a0906001600160a01b031682611010565b50806109ab81611d0d565b915050610936565b5080600760008282546109c69190611af2565b909155505050505050565b6109db3382611152565b6109f75760405162461bcd60e51b815260040161056590611a53565b610900838383611221565b600f546001600160a01b0316331480610a2557506006546001600160a01b031633145b610a625760405162461bcd60e51b815260206004820152600e60248201526d139bdd08105d5d1a1bdc9a5e995960921b6044820152606401610565565b604051600090339047908381818185875af1925050503d8060008114610aa4576040519150601f19603f3d011682016040523d82523d6000602084013e610aa9565b606091505b5050905080610ab757600080fd5b50565b61090083838360405180602001604052806000815250610e02565b600b6020528160005260406000208181548110610af157600080fd5b6000918252602090912001546001600160a01b03169150829050565b6000818152600260205260408120546001600160a01b0316806106c25760405162461bcd60e51b815260206004820152602960248201527f4552433732313a206f776e657220717565727920666f72206e6f6e657869737460448201526832b73a103a37b5b2b760b91b6064820152608401610565565b600080610b8f610c84565b90506000670de0b6b3a7640000610ba68584611c9c565b610bb09190611b0a565b949350505050565b60006001600160a01b038216610c235760405162461bcd60e51b815260206004820152602a60248201527f4552433732313a2062616c616e636520717565727920666f7220746865207a65604482015269726f206164647265737360b01b6064820152608401610565565b506001600160a01b031660009081526003602052604090205490565b6006546001600160a01b03163314610c695760405162461bcd60e51b815260040161056590611a1e565b610c7360006113c1565b565b6060600180546106d790611cd2565b600080600c60009054906101000a90046001600160a01b03166001600160a01b031663feaf968c6040518163ffffffff1660e01b815260040160a06040518083038186803b158015610cd557600080fd5b505afa158015610ce9573d6000803e3d6000fd5b505050506040513d601f19601f82011682018060405250810190610d0d91906118df565b505050915050600d546012610d229190611cbb565b610d2d90600a611b6f565b610d379082611c17565b91505090565b6001600160a01b038216331415610d965760405162461bcd60e51b815260206004820152601960248201527f4552433732313a20617070726f766520746f2063616c6c6572000000000000006044820152606401610565565b3360008181526005602090815260408083206001600160a01b03871680855290835292819020805460ff191686151590811790915590519081529192917f17307eab39ab6107e8899845ad3d59bd9653f200f220920489ca2b5937696c31910160405180910390a35050565b610e0c3383611152565b610e285760405162461bcd60e51b815260040161056590611a53565b610e3484848484611413565b50505050565b6000818152600960205260409020805460609190610e5790611cd2565b80601f0160208091040260200160405190810160405280929190818152602001828054610e8390611cd2565b8015610ed05780601f10610ea557610100808354040283529160200191610ed0565b820191906000526020600020905b815481529060010190602001808311610eb357829003601f168201915b50505050509050919050565b6001600160a01b03918216600090815260056020908152604080832093909416825291909152205460ff1690565b6006546001600160a01b03163314610f345760405162461bcd60e51b815260040161056590611a1e565b6001600160a01b038116610f995760405162461bcd60e51b815260206004820152602660248201527f4f776e61626c653a206e6577206f776e657220697320746865207a65726f206160448201526564647265737360d01b6064820152608401610565565b610ab7816113c1565b600081815260046020526040902080546001600160a01b0319166001600160a01b0384169081179091558190610fd782610b0d565b6001600160a01b03167f8c5be1e5ebec7d5bd14f71427d1e84f3dd0314c0f7b2291e5b200ac8c7c3b92560405160405180910390a45050565b6001600160a01b0382166110665760405162461bcd60e51b815260206004820181905260248201527f4552433732313a206d696e7420746f20746865207a65726f20616464726573736044820152606401610565565b6000818152600260205260409020546001600160a01b0316156110cb5760405162461bcd60e51b815260206004820152601c60248201527f4552433732313a20746f6b656e20616c7265616479206d696e746564000000006044820152606401610565565b6001600160a01b03821660009081526003602052604081208054600192906110f4908490611af2565b909155505060008181526002602052604080822080546001600160a01b0319166001600160a01b03861690811790915590518392907fddf252ad1be2c89b69c2b068fc378daa952ba7f163c4a11628f55a4df523b3ef908290a45050565b6000818152600260205260408120546001600160a01b03166111cb5760405162461bcd60e51b815260206004820152602c60248201527f4552433732313a206f70657261746f7220717565727920666f72206e6f6e657860448201526b34b9ba32b73a103a37b5b2b760a11b6064820152608401610565565b60006111d683610b0d565b9050806001600160a01b0316846001600160a01b031614806112115750836001600160a01b03166112068461075a565b6001600160a01b0316145b80610bb05750610bb08185610edc565b826001600160a01b031661123482610b0d565b6001600160a01b03161461129c5760405162461bcd60e51b815260206004820152602960248201527f4552433732313a207472616e73666572206f6620746f6b656e2074686174206960448201526839903737ba1037bbb760b91b6064820152608401610565565b6001600160a01b0382166112fe5760405162461bcd60e51b8152602060048201526024808201527f4552433732313a207472616e7366657220746f20746865207a65726f206164646044820152637265737360e01b6064820152608401610565565b611309600082610fa2565b6001600160a01b0383166000908152600360205260408120805460019290611332908490611cbb565b90915550506001600160a01b0382166000908152600360205260408120805460019290611360908490611af2565b909155505060008181526002602052604080822080546001600160a01b0319166001600160a01b0386811691821790925591518493918716917fddf252ad1be2c89b69c2b068fc378daa952ba7f163c4a11628f55a4df523b3ef91a4505050565b600680546001600160a01b038381166001600160a01b0319831681179093556040519116919082907f8be0079c531659141344cd1fd0a4f28419497f9722a3daafe3b4186f6b6457e090600090a35050565b61141e848484611221565b61142a84848484611446565b610e345760405162461bcd60e51b8152600401610565906119cc565b60006001600160a01b0384163b1561154857604051630a85bd0160e11b81526001600160a01b0385169063150b7a029061148a90339089908890889060040161197c565b602060405180830381600087803b1580156114a457600080fd5b505af19250505080156114d4575060408051601f3d908101601f191682019092526114d191810190611887565b60015b61152e573d808015611502576040519150601f19603f3d011682016040523d82523d6000602084013e611507565b606091505b5080516115265760405162461bcd60e51b8152600401610565906119cc565b805181602001fd5b6001600160e01b031916630a85bd0160e11b149050610bb0565b506001949350505050565b82805461155f90611cd2565b90600052602060002090601f01602090048101928261158157600085556115c7565b82601f1061159a5782800160ff198235161785556115c7565b828001600101855582156115c7579182015b828111156115c75782358255916020019190600101906115ac565b506115d39291506115d7565b5090565b5b808211156115d357600081556001016115d8565b80356001600160a01b038116811461160357600080fd5b919050565b805169ffffffffffffffffffff8116811461160357600080fd5b60006020828403121561163457600080fd5b61163d826115ec565b9392505050565b6000806040838503121561165757600080fd5b611660836115ec565b915061166e602084016115ec565b90509250929050565b60008060006060848603121561168c57600080fd5b611695846115ec565b92506116a3602085016115ec565b9150604084013590509250925092565b600080600080608085870312156116c957600080fd5b6116d2856115ec565b93506116e0602086016115ec565b925060408501359150606085013567ffffffffffffffff8082111561170457600080fd5b818701915087601f83011261171857600080fd5b81358181111561172a5761172a611d54565b604051601f8201601f19908116603f0116810190838211818310171561175257611752611d54565b816040528281528a602084870101111561176b57600080fd5b82602086016020830137600060208483010152809550505050505092959194509250565b600080604083850312156117a257600080fd5b6117ab836115ec565b9150602083013580151581146117c057600080fd5b809150509250929050565b600080604083850312156117de57600080fd5b6117e7836115ec565b946020939093013593505050565b6000806020838503121561180857600080fd5b823567ffffffffffffffff8082111561182057600080fd5b818501915085601f83011261183457600080fd5b81358181111561184357600080fd5b8660208260051b850101111561185857600080fd5b60209290920196919550909350505050565b60006020828403121561187c57600080fd5b813561163d81611d6a565b60006020828403121561189957600080fd5b815161163d81611d6a565b6000602082840312156118b657600080fd5b5035919050565b600080604083850312156118d057600080fd5b50508035926020909101359150565b600080600080600060a086880312156118f757600080fd5b61190086611608565b945060208601519350604086015192506060860151915061192360808701611608565b90509295509295909350565b6000815180845260005b8181101561195557602081850181015186830182015201611939565b81811115611967576000602083870101525b50601f01601f19169290920160200192915050565b6001600160a01b03858116825284166020820152604081018390526080606082018190526000906119af9083018461192f565b9695505050505050565b60208152600061163d602083018461192f565b60208082526032908201527f4552433732313a207472616e7366657220746f206e6f6e20455243373231526560408201527131b2b4bb32b91034b6b83632b6b2b73a32b960711b606082015260800190565b6020808252818101527f4f776e61626c653a2063616c6c6572206973206e6f7420746865206f776e6572604082015260600190565b60208082526031908201527f4552433732313a207472616e736665722063616c6c6572206973206e6f74206f6040820152701ddb995c881b9bdc88185c1c1c9bdd9959607a1b606082015260800190565b6000808335601e19843603018112611abb57600080fd5b83018035915067ffffffffffffffff821115611ad657600080fd5b602001915036819003821315611aeb57600080fd5b9250929050565b60008219821115611b0557611b05611d28565b500190565b600082611b2757634e487b7160e01b600052601260045260246000fd5b500490565b600181815b80851115611b67578160001904821115611b4d57611b4d611d28565b80851615611b5a57918102915b93841c9390800290611b31565b509250929050565b600061163d8383600082611b85575060016106c2565b81611b92575060006106c2565b8160018114611ba85760028114611bb257611bce565b60019150506106c2565b60ff841115611bc357611bc3611d28565b50506001821b6106c2565b5060208310610133831016604e8410600b8410161715611bf1575081810a6106c2565b611bfb8383611b2c565b8060001904821115611c0f57611c0f611d28565b029392505050565b60006001600160ff1b0381841382841380821686840486111615611c3d57611c3d611d28565b600160ff1b6000871282811687830589121615611c5c57611c5c611d28565b60008712925087820587128484161615611c7857611c78611d28565b87850587128184161615611c8e57611c8e611d28565b505050929093029392505050565b6000816000190483118215151615611cb657611cb6611d28565b500290565b600082821015611ccd57611ccd611d28565b500390565b600181811c90821680611ce657607f821691505b60208210811415611d0757634e487b7160e01b600052602260045260246000fd5b50919050565b6000600019821415611d2157611d21611d28565b5060010190565b634e487b7160e01b600052601160045260246000fd5b634e487b7160e01b600052603260045260246000fd5b634e487b7160e01b600052604160045260246000fd5b6001600160e01b031981168114610ab757600080fdfea2646970667358221220d33d5133de5f158da17de8243202a68198254d53db0b59f25f65ff2e844aaa1964736f6c63430008070033",
  "devdoc": {
    "kind": "dev",
    "methods": {
      "approve(address,uint256)": {
        "details": "See {IERC721-approve}."
      },
      "balanceOf(address)": {
        "details": "See {IERC721-balanceOf}."
      },
      "getApproved(uint256)": {
        "details": "See {IERC721-getApproved}."
      },
      "isApprovedForAll(address,address)": {
        "details": "See {IERC721-isApprovedForAll}."
      },
      "name()": {
        "details": "See {IERC721Metadata-name}."
      },
      "owner()": {
        "details": "Returns the address of the current owner."
      },
      "ownerOf(uint256)": {
        "details": "See {IERC721-ownerOf}."
      },
      "renounceOwnership()": {
        "details": "Leaves the contract without owner. It will not be possible to call `onlyOwner` functions anymore. Can only be called by the current owner. NOTE: Renouncing ownership will leave the contract without an owner, thereby removing any functionality that is only available to the owner."
      },
      "safeTransferFrom(address,address,uint256)": {
        "details": "See {IERC721-safeTransferFrom}."
      },
      "safeTransferFrom(address,address,uint256,bytes)": {
        "details": "See {IERC721-safeTransferFrom}."
      },
      "setApprovalForAll(address,bool)": {
        "details": "See {IERC721-setApprovalForAll}."
      },
      "supportsInterface(bytes4)": {
        "details": "See {IERC165-supportsInterface}."
      },
      "symbol()": {
        "details": "See {IERC721Metadata-symbol}."
      },
      "tokenURI(uint256)": {
        "details": "See {IERC721Metadata-tokenURI}."
      },
      "transferFrom(address,address,uint256)": {
        "details": "See {IERC721-transferFrom}."
      },
      "transferOwnership(address)": {
        "details": "Transfers ownership of the contract to a new account (`newOwner`). Can only be called by the current owner."
      }
    },
    "version": 1
  },
  "userdoc": {
    "kind": "user",
    "methods": {},
    "version": 1
  },
  "storageLayout": {
    "storage": [
      {
        "astId": 1434,
        "contract": "contracts/DAOHuntERC721.sol:DAOHuntERC721",
        "label": "_name",
        "offset": 0,
        "slot": "0",
        "type": "t_string_storage"
      },
      {
        "astId": 1436,
        "contract": "contracts/DAOHuntERC721.sol:DAOHuntERC721",
        "label": "_symbol",
        "offset": 0,
        "slot": "1",
        "type": "t_string_storage"
      },
      {
        "astId": 1440,
        "contract": "contracts/DAOHuntERC721.sol:DAOHuntERC721",
        "label": "_owners",
        "offset": 0,
        "slot": "2",
        "type": "t_mapping(t_uint256,t_address)"
      },
      {
        "astId": 1444,
        "contract": "contracts/DAOHuntERC721.sol:DAOHuntERC721",
        "label": "_balances",
        "offset": 0,
        "slot": "3",
        "type": "t_mapping(t_address,t_uint256)"
      },
      {
        "astId": 1448,
        "contract": "contracts/DAOHuntERC721.sol:DAOHuntERC721",
        "label": "_tokenApprovals",
        "offset": 0,
        "slot": "4",
        "type": "t_mapping(t_uint256,t_address)"
      },
      {
        "astId": 1454,
        "contract": "contracts/DAOHuntERC721.sol:DAOHuntERC721",
        "label": "_operatorApprovals",
        "offset": 0,
        "slot": "5",
        "type": "t_mapping(t_address,t_mapping(t_address,t_bool))"
      },
      {
        "astId": 53,
        "contract": "contracts/DAOHuntERC721.sol:DAOHuntERC721",
        "label": "_owner",
        "offset": 0,
        "slot": "6",
        "type": "t_address"
      },
      {
        "astId": 2955,
        "contract": "contracts/DAOHuntERC721.sol:DAOHuntERC721",
        "label": "tokenIdCounter",
        "offset": 0,
        "slot": "7",
        "type": "t_uint256"
      },
      {
        "astId": 2958,
        "contract": "contracts/DAOHuntERC721.sol:DAOHuntERC721",
        "label": "upvoteNFT",
        "offset": 0,
        "slot": "8",
        "type": "t_contract(UpvoteERC1155)3317"
      },
      {
        "astId": 2962,
        "contract": "contracts/DAOHuntERC721.sol:DAOHuntERC721",
        "label": "idToUri",
        "offset": 0,
        "slot": "9",
        "type": "t_mapping(t_uint256,t_string_storage)"
      },
      {
        "astId": 2968,
        "contract": "contracts/DAOHuntERC721.sol:DAOHuntERC721",
        "label": "hasUpvoted",
        "offset": 0,
        "slot": "10",
        "type": "t_mapping(t_address,t_mapping(t_uint256,t_bool))"
      },
      {
        "astId": 2973,
        "contract": "contracts/DAOHuntERC721.sol:DAOHuntERC721",
        "label": "whoUpvoted",
        "offset": 0,
        "slot": "11",
        "type": "t_mapping(t_uint256,t_array(t_address)dyn_storage)"
      },
      {
        "astId": 2976,
        "contract": "contracts/DAOHuntERC721.sol:DAOHuntERC721",
        "label": "priceFeed",
        "offset": 0,
        "slot": "12",
        "type": "t_contract(AggregatorV3Interface)45"
      },
      {
        "astId": 2978,
        "contract": "contracts/DAOHuntERC721.sol:DAOHuntERC721",
        "label": "feedDecimals",
        "offset": 0,
        "slot": "13",
        "type": "t_uint256"
      },
      {
        "astId": 2980,
        "contract": "contracts/DAOHuntERC721.sol:DAOHuntERC721",
        "label": "usdUpvotePriceInWei",
        "offset": 0,
        "slot": "14",
        "type": "t_uint256"
      },
      {
        "astId": 2982,
        "contract": "contracts/DAOHuntERC721.sol:DAOHuntERC721",
        "label": "treasury",
        "offset": 0,
        "slot": "15",
        "type": "t_address"
      }
    ],
    "types": {
      "t_address": {
        "encoding": "inplace",
        "label": "address",
        "numberOfBytes": "20"
      },
      "t_array(t_address)dyn_storage": {
        "base": "t_address",
        "encoding": "dynamic_array",
        "label": "address[]",
        "numberOfBytes": "32"
      },
      "t_bool": {
        "encoding": "inplace",
        "label": "bool",
        "numberOfBytes": "1"
      },
      "t_contract(AggregatorV3Interface)45": {
        "encoding": "inplace",
        "label": "contract AggregatorV3Interface",
        "numberOfBytes": "20"
      },
      "t_contract(UpvoteERC1155)3317": {
        "encoding": "inplace",
        "label": "contract UpvoteERC1155",
        "numberOfBytes": "20"
      },
      "t_mapping(t_address,t_bool)": {
        "encoding": "mapping",
        "key": "t_address",
        "label": "mapping(address => bool)",
        "numberOfBytes": "32",
        "value": "t_bool"
      },
      "t_mapping(t_address,t_mapping(t_address,t_bool))": {
        "encoding": "mapping",
        "key": "t_address",
        "label": "mapping(address => mapping(address => bool))",
        "numberOfBytes": "32",
        "value": "t_mapping(t_address,t_bool)"
      },
      "t_mapping(t_address,t_mapping(t_uint256,t_bool))": {
        "encoding": "mapping",
        "key": "t_address",
        "label": "mapping(address => mapping(uint256 => bool))",
        "numberOfBytes": "32",
        "value": "t_mapping(t_uint256,t_bool)"
      },
      "t_mapping(t_address,t_uint256)": {
        "encoding": "mapping",
        "key": "t_address",
        "label": "mapping(address => uint256)",
        "numberOfBytes": "32",
        "value": "t_uint256"
      },
      "t_mapping(t_uint256,t_address)": {
        "encoding": "mapping",
        "key": "t_uint256",
        "label": "mapping(uint256 => address)",
        "numberOfBytes": "32",
        "value": "t_address"
      },
      "t_mapping(t_uint256,t_array(t_address)dyn_storage)": {
        "encoding": "mapping",
        "key": "t_uint256",
        "label": "mapping(uint256 => address[])",
        "numberOfBytes": "32",
        "value": "t_array(t_address)dyn_storage"
      },
      "t_mapping(t_uint256,t_bool)": {
        "encoding": "mapping",
        "key": "t_uint256",
        "label": "mapping(uint256 => bool)",
        "numberOfBytes": "32",
        "value": "t_bool"
      },
      "t_mapping(t_uint256,t_string_storage)": {
        "encoding": "mapping",
        "key": "t_uint256",
        "label": "mapping(uint256 => string)",
        "numberOfBytes": "32",
        "value": "t_string_storage"
      },
      "t_string_storage": {
        "encoding": "bytes",
        "label": "string",
        "numberOfBytes": "32"
      },
      "t_uint256": {
        "encoding": "inplace",
        "label": "uint256",
        "numberOfBytes": "32"
      }
    }
  }
}