{
  "address": "0x88d9565Fbd6C0599A84b23233437e6d2428F4018",
  "abi": [
    {
      "anonymous": false,
      "inputs": [
        {
          "indexed": true,
          "internalType": "address",
          "name": "account",
          "type": "address"
        },
        {
          "indexed": true,
          "internalType": "address",
          "name": "operator",
          "type": "address"
        },
        {
          "indexed": false,
          "internalType": "bool",
          "name": "approved",
          "type": "bool"
        }
      ],
      "name": "ApprovalForAll",
      "type": "event"
    },
    {
      "anonymous": false,
      "inputs": [
        {
          "indexed": true,
          "internalType": "address",
          "name": "previousOwner",
          "type": "address"
        },
        {
          "indexed": true,
          "internalType": "address",
          "name": "newOwner",
          "type": "address"
        }
      ],
      "name": "OwnershipTransferred",
      "type": "event"
    },
    {
      "anonymous": false,
      "inputs": [
        {
          "indexed": true,
          "internalType": "address",
          "name": "operator",
          "type": "address"
        },
        {
          "indexed": true,
          "internalType": "address",
          "name": "from",
          "type": "address"
        },
        {
          "indexed": true,
          "internalType": "address",
          "name": "to",
          "type": "address"
        },
        {
          "indexed": false,
          "internalType": "uint256[]",
          "name": "ids",
          "type": "uint256[]"
        },
        {
          "indexed": false,
          "internalType": "uint256[]",
          "name": "values",
          "type": "uint256[]"
        }
      ],
      "name": "TransferBatch",
      "type": "event"
    },
    {
      "anonymous": false,
      "inputs": [
        {
          "indexed": true,
          "internalType": "address",
          "name": "operator",
          "type": "address"
        },
        {
          "indexed": true,
          "internalType": "address",
          "name": "from",
          "type": "address"
        },
        {
          "indexed": true,
          "internalType": "address",
          "name": "to",
          "type": "address"
        },
        {
          "indexed": false,
          "internalType": "uint256",
          "name": "id",
          "type": "uint256"
        },
        {
          "indexed": false,
          "internalType": "uint256",
          "name": "value",
          "type": "uint256"
        }
      ],
      "name": "TransferSingle",
      "type": "event"
    },
    {
      "anonymous": false,
      "inputs": [
        {
          "indexed": false,
          "internalType": "string",
          "name": "value",
          "type": "string"
        },
        {
          "indexed": true,
          "internalType": "uint256",
          "name": "id",
          "type": "uint256"
        }
      ],
      "name": "URI",
      "type": "event"
    },
    {
      "inputs": [
        {
          "internalType": "address",
          "name": "account",
          "type": "address"
        },
        {
          "internalType": "uint256",
          "name": "id",
          "type": "uint256"
        }
      ],
      "name": "balanceOf",
      "outputs": [
        {
          "internalType": "uint256",
          "name": "",
          "type": "uint256"
        }
      ],
      "stateMutability": "view",
      "type": "function"
    },
    {
      "inputs": [
        {
          "internalType": "address[]",
          "name": "accounts",
          "type": "address[]"
        },
        {
          "internalType": "uint256[]",
          "name": "ids",
          "type": "uint256[]"
        }
      ],
      "name": "balanceOfBatch",
      "outputs": [
        {
          "internalType": "uint256[]",
          "name": "",
          "type": "uint256[]"
        }
      ],
      "stateMutability": "view",
      "type": "function"
    },
    {
      "inputs": [],
      "name": "daoHunt",
      "outputs": [
        {
          "internalType": "address",
          "name": "",
          "type": "address"
        }
      ],
      "stateMutability": "view",
      "type": "function"
    },
    {
      "inputs": [
        {
          "internalType": "address",
          "name": "account",
          "type": "address"
        },
        {
          "internalType": "address",
          "name": "operator",
          "type": "address"
        }
      ],
      "name": "isApprovedForAll",
      "outputs": [
        {
          "internalType": "bool",
          "name": "",
          "type": "bool"
        }
      ],
      "stateMutability": "view",
      "type": "function"
    },
    {
      "inputs": [
        {
          "internalType": "uint256",
          "name": "id",
          "type": "uint256"
        },
        {
          "internalType": "address",
          "name": "to",
          "type": "address"
        }
      ],
      "name": "mint",
      "outputs": [],
      "stateMutability": "nonpayable",
      "type": "function"
    },
    {
      "inputs": [],
      "name": "name",
      "outputs": [
        {
          "internalType": "string",
          "name": "",
          "type": "string"
        }
      ],
      "stateMutability": "view",
      "type": "function"
    },
    {
      "inputs": [],
      "name": "owner",
      "outputs": [
        {
          "internalType": "address",
          "name": "",
          "type": "address"
        }
      ],
      "stateMutability": "view",
      "type": "function"
    },
    {
      "inputs": [],
      "name": "renounceOwnership",
      "outputs": [],
      "stateMutability": "nonpayable",
      "type": "function"
    },
    {
      "inputs": [
        {
          "internalType": "address",
          "name": "from",
          "type": "address"
        },
        {
          "internalType": "address",
          "name": "to",
          "type": "address"
        },
        {
          "internalType": "uint256[]",
          "name": "ids",
          "type": "uint256[]"
        },
        {
          "internalType": "uint256[]",
          "name": "amounts",
          "type": "uint256[]"
        },
        {
          "internalType": "bytes",
          "name": "data",
          "type": "bytes"
        }
      ],
      "name": "safeBatchTransferFrom",
      "outputs": [],
      "stateMutability": "nonpayable",
      "type": "function"
    },
    {
      "inputs": [
        {
          "internalType": "address",
          "name": "from",
          "type": "address"
        },
        {
          "internalType": "address",
          "name": "to",
          "type": "address"
        },
        {
          "internalType": "uint256",
          "name": "id",
          "type": "uint256"
        },
        {
          "internalType": "uint256",
          "name": "amount",
          "type": "uint256"
        },
        {
          "internalType": "bytes",
          "name": "data",
          "type": "bytes"
        }
      ],
      "name": "safeTransferFrom",
      "outputs": [],
      "stateMutability": "nonpayable",
      "type": "function"
    },
    {
      "inputs": [
        {
          "internalType": "address",
          "name": "operator",
          "type": "address"
        },
        {
          "internalType": "bool",
          "name": "approved",
          "type": "bool"
        }
      ],
      "name": "setApprovalForAll",
      "outputs": [],
      "stateMutability": "nonpayable",
      "type": "function"
    },
    {
      "inputs": [
        {
          "internalType": "address",
          "name": "_daoHunt",
          "type": "address"
        }
      ],
      "name": "setDAOHunt",
      "outputs": [],
      "stateMutability": "nonpayable",
      "type": "function"
    },
    {
      "inputs": [
        {
          "internalType": "string",
          "name": "_uri",
          "type": "string"
        }
      ],
      "name": "setURI",
      "outputs": [],
      "stateMutability": "nonpayable",
      "type": "function"
    },
    {
      "inputs": [
        {
          "internalType": "bytes4",
          "name": "interfaceId",
          "type": "bytes4"
        }
      ],
      "name": "supportsInterface",
      "outputs": [
        {
          "internalType": "bool",
          "name": "",
          "type": "bool"
        }
      ],
      "stateMutability": "view",
      "type": "function"
    },
    {
      "inputs": [],
      "name": "symbol",
      "outputs": [
        {
          "internalType": "string",
          "name": "",
          "type": "string"
        }
      ],
      "stateMutability": "view",
      "type": "function"
    },
    {
      "inputs": [],
      "name": "tokenIdCounter",
      "outputs": [
        {
          "internalType": "uint256",
          "name": "",
          "type": "uint256"
        }
      ],
      "stateMutability": "view",
      "type": "function"
    },
    {
      "inputs": [
        {
          "internalType": "address",
          "name": "newOwner",
          "type": "address"
        }
      ],
      "name": "transferOwnership",
      "outputs": [],
      "stateMutability": "nonpayable",
      "type": "function"
    },
    {
      "inputs": [
        {
          "internalType": "uint256",
          "name": "_id",
          "type": "uint256"
        }
      ],
      "name": "uri",
      "outputs": [
        {
          "internalType": "string",
          "name": "",
          "type": "string"
        }
      ],
      "stateMutability": "view",
      "type": "function"
    }
  ],
  "transactionHash": "0x39dc70e06f842951121de3351d11a217307edc5800581f941449ac81f4fb9ad8",
  "args": [],
  "solcInputHash": "76b33eabb7525421be0cb97d1e5d8c9c",
  "bytecode": "0x60806040523480156200001157600080fd5b506040805160208101909152600081526200002c816200003e565b50620000383362000057565b6200018c565b805162000053906002906020840190620000a9565b5050565b600380546001600160a01b038381166001600160a01b0319831681179093556040519116919082907f8be0079c531659141344cd1fd0a4f28419497f9722a3daafe3b4186f6b6457e090600090a35050565b828054620000b7906200014f565b90600052602060002090601f016020900481019282620000db576000855562000126565b82601f10620000f657805160ff191683800117855562000126565b8280016001018555821562000126579182015b828111156200012657825182559160200191906001019062000109565b506200013492915062000138565b5090565b5b8082111562000134576000815560010162000139565b600181811c908216806200016457607f821691505b602082108114156200018657634e487b7160e01b600052602260045260246000fd5b50919050565b6119de806200019c6000396000f3fe608060405234801561001057600080fd5b50600436106101155760003560e01c8063715018a6116100a257806398bdf6f51161007157806398bdf6f51461028a578063a22cb46514610293578063e985e9c5146102a6578063f242432a146102e2578063f2fde38b146102f557600080fd5b8063715018a6146102365780638da5cb5b1461023e57806394bf804d1461024f57806395d89b411461026257600080fd5b806306fdde03116100e957806306fdde03146101a35780630e89341c146101dd5780632569f135146101f05780632eb2c2d6146102035780634e1273f41461021657600080fd5b8062fdd58e1461011a57806301d0920c1461014057806301ffc9a71461016b57806302fe53051461018e575b600080fd5b61012d61012836600461137d565b610308565b6040519081526020015b60405180910390f35b600554610153906001600160a01b031681565b6040516001600160a01b039091168152602001610137565b61017e610179366004611478565b61039f565b6040519015158152602001610137565b6101a161019c3660046114b2565b6103f1565b005b6101d06040518060400160405280600e81526020016d44414f48756e74205570766f746560901b81525081565b60405161013791906116cc565b6101d06101eb366004611524565b61042c565b6101a16101fe3660046111dd565b6104c0565b6101a1610211366004611232565b61050c565b6102296102243660046113a7565b6105a3565b604051610137919061168b565b6101a16106cd565b6003546001600160a01b0316610153565b6101a161025d36600461153d565b610703565b6101d06040518060400160405280600981526020016811121395081554159560ba1b81525081565b61012d60045481565b6101a16102a1366004611341565b61076e565b61017e6102b43660046111ff565b6001600160a01b03918216600090815260016020908152604080832093909416825291909152205460ff1690565b6101a16102f03660046112dc565b610845565b6101a16103033660046111dd565b6108cc565b60006001600160a01b0383166103795760405162461bcd60e51b815260206004820152602b60248201527f455243313135353a2062616c616e636520717565727920666f7220746865207a60448201526a65726f206164647265737360a81b60648201526084015b60405180910390fd5b506000908152602081815260408083206001600160a01b03949094168352929052205490565b60006001600160e01b03198216636cdb3d1360e11b14806103d057506001600160e01b031982166303a24d0760e21b145b806103eb57506301ffc9a760e01b6001600160e01b03198316145b92915050565b6003546001600160a01b0316331461041b5760405162461bcd60e51b8152600401610370906117b6565b6104276006838361103d565b505050565b60606006805461043b90611827565b80601f016020809104026020016040519081016040528092919081815260200182805461046790611827565b80156104b45780601f10610489576101008083540402835291602001916104b4565b820191906000526020600020905b81548152906001019060200180831161049757829003601f168201915b50505050509050919050565b6003546001600160a01b031633146104ea5760405162461bcd60e51b8152600401610370906117b6565b600580546001600160a01b0319166001600160a01b0392909216919091179055565b6001600160a01b038516331480610528575061052885336102b4565b61058f5760405162461bcd60e51b815260206004820152603260248201527f455243313135353a207472616e736665722063616c6c6572206973206e6f74206044820152711bdddb995c881b9bdc88185c1c1c9bdd995960721b6064820152608401610370565b61059c8585858585610967565b5050505050565b606081518351146106085760405162461bcd60e51b815260206004820152602960248201527f455243313135353a206163636f756e747320616e6420696473206c656e677468604482015268040dad2e6dac2e8c6d60bb1b6064820152608401610370565b6000835167ffffffffffffffff811115610624576106246118d6565b60405190808252806020026020018201604052801561064d578160200160208202803683370190505b50905060005b84518110156106c557610698858281518110610671576106716118c0565b602002602001015185838151811061068b5761068b6118c0565b6020026020010151610308565b8282815181106106aa576106aa6118c0565b60209081029190910101526106be8161188f565b9050610653565b509392505050565b6003546001600160a01b031633146106f75760405162461bcd60e51b8152600401610370906117b6565b6107016000610b44565b565b6005546001600160a01b0316331461074e5760405162461bcd60e51b815260206004820152600e60248201526d139bdd08105d5d1a1bdc9a5e995960921b6044820152606401610370565b61076a8183600160405180602001604052806000815250610b96565b5050565b336001600160a01b03831614156107d95760405162461bcd60e51b815260206004820152602960248201527f455243313135353a2073657474696e6720617070726f76616c20737461747573604482015268103337b91039b2b63360b91b6064820152608401610370565b3360008181526001602090815260408083206001600160a01b03871680855290835292819020805460ff191686151590811790915590519081529192917f17307eab39ab6107e8899845ad3d59bd9653f200f220920489ca2b5937696c31910160405180910390a35050565b6001600160a01b038516331480610861575061086185336102b4565b6108bf5760405162461bcd60e51b815260206004820152602960248201527f455243313135353a2063616c6c6572206973206e6f74206f776e6572206e6f7260448201526808185c1c1c9bdd995960ba1b6064820152608401610370565b61059c8585858585610ca0565b6003546001600160a01b031633146108f65760405162461bcd60e51b8152600401610370906117b6565b6001600160a01b03811661095b5760405162461bcd60e51b815260206004820152602660248201527f4f776e61626c653a206e6577206f776e657220697320746865207a65726f206160448201526564647265737360d01b6064820152608401610370565b61096481610b44565b50565b81518351146109c95760405162461bcd60e51b815260206004820152602860248201527f455243313135353a2069647320616e6420616d6f756e7473206c656e677468206044820152670dad2e6dac2e8c6d60c31b6064820152608401610370565b6001600160a01b0384166109ef5760405162461bcd60e51b815260040161037090611727565b3360005b8451811015610ad6576000858281518110610a1057610a106118c0565b602002602001015190506000858381518110610a2e57610a2e6118c0565b602090810291909101810151600084815280835260408082206001600160a01b038e168352909352919091205490915081811015610a7e5760405162461bcd60e51b81526004016103709061176c565b6000838152602081815260408083206001600160a01b038e8116855292528083208585039055908b16825281208054849290610abb90849061180f565b9250508190555050505080610acf9061188f565b90506109f3565b50846001600160a01b0316866001600160a01b0316826001600160a01b03167f4a39dc06d4c0dbc64b70af90fd698a233a518aa5d07e595d983b8c0526c8f7fb8787604051610b2692919061169e565b60405180910390a4610b3c818787878787610dbd565b505050505050565b600380546001600160a01b038381166001600160a01b0319831681179093556040519116919082907f8be0079c531659141344cd1fd0a4f28419497f9722a3daafe3b4186f6b6457e090600090a35050565b6001600160a01b038416610bf65760405162461bcd60e51b815260206004820152602160248201527f455243313135353a206d696e7420746f20746865207a65726f206164647265736044820152607360f81b6064820152608401610370565b33610c1081600087610c0788610f28565b61059c88610f28565b6000848152602081815260408083206001600160a01b038916845290915281208054859290610c4090849061180f565b909155505060408051858152602081018590526001600160a01b0380881692600092918516917fc3d58168c5ae7397731d063d5bbf3d657854427343f4c083240f7aacaa2d0f62910160405180910390a461059c81600087878787610f73565b6001600160a01b038416610cc65760405162461bcd60e51b815260040161037090611727565b33610cd6818787610c0788610f28565b6000848152602081815260408083206001600160a01b038a16845290915290205483811015610d175760405162461bcd60e51b81526004016103709061176c565b6000858152602081815260408083206001600160a01b038b8116855292528083208785039055908816825281208054869290610d5490849061180f565b909155505060408051868152602081018690526001600160a01b03808916928a821692918616917fc3d58168c5ae7397731d063d5bbf3d657854427343f4c083240f7aacaa2d0f62910160405180910390a4610db4828888888888610f73565b50505050505050565b6001600160a01b0384163b15610b3c5760405163bc197c8160e01b81526001600160a01b0385169063bc197c8190610e0190899089908890889088906004016115e8565b602060405180830381600087803b158015610e1b57600080fd5b505af1925050508015610e4b575060408051601f3d908101601f19168201909252610e4891810190611495565b60015b610ef857610e576118ec565b806308c379a01415610e915750610e6c611908565b80610e775750610e93565b8060405162461bcd60e51b815260040161037091906116cc565b505b60405162461bcd60e51b815260206004820152603460248201527f455243313135353a207472616e7366657220746f206e6f6e20455243313135356044820152732932b1b2b4bb32b91034b6b83632b6b2b73a32b960611b6064820152608401610370565b6001600160e01b0319811663bc197c8160e01b14610db45760405162461bcd60e51b8152600401610370906116df565b60408051600180825281830190925260609160009190602080830190803683370190505090508281600081518110610f6257610f626118c0565b602090810291909101015292915050565b6001600160a01b0384163b15610b3c5760405163f23a6e6160e01b81526001600160a01b0385169063f23a6e6190610fb79089908990889088908890600401611646565b602060405180830381600087803b158015610fd157600080fd5b505af1925050508015611001575060408051601f3d908101601f19168201909252610ffe91810190611495565b60015b61100d57610e576118ec565b6001600160e01b0319811663f23a6e6160e01b14610db45760405162461bcd60e51b8152600401610370906116df565b82805461104990611827565b90600052602060002090601f01602090048101928261106b57600085556110b1565b82601f106110845782800160ff198235161785556110b1565b828001600101855582156110b1579182015b828111156110b1578235825591602001919060010190611096565b506110bd9291506110c1565b5090565b5b808211156110bd57600081556001016110c2565b80356001600160a01b03811681146110ed57600080fd5b919050565b600082601f83011261110357600080fd5b81356020611110826117eb565b60405161111d8282611862565b8381528281019150858301600585901b8701840188101561113d57600080fd5b60005b8581101561115c57813584529284019290840190600101611140565b5090979650505050505050565b600082601f83011261117a57600080fd5b813567ffffffffffffffff811115611194576111946118d6565b6040516111ab601f8301601f191660200182611862565b8181528460208386010111156111c057600080fd5b816020850160208301376000918101602001919091529392505050565b6000602082840312156111ef57600080fd5b6111f8826110d6565b9392505050565b6000806040838503121561121257600080fd5b61121b836110d6565b9150611229602084016110d6565b90509250929050565b600080600080600060a0868803121561124a57600080fd5b611253866110d6565b9450611261602087016110d6565b9350604086013567ffffffffffffffff8082111561127e57600080fd5b61128a89838a016110f2565b945060608801359150808211156112a057600080fd5b6112ac89838a016110f2565b935060808801359150808211156112c257600080fd5b506112cf88828901611169565b9150509295509295909350565b600080600080600060a086880312156112f457600080fd5b6112fd866110d6565b945061130b602087016110d6565b93506040860135925060608601359150608086013567ffffffffffffffff81111561133557600080fd5b6112cf88828901611169565b6000806040838503121561135457600080fd5b61135d836110d6565b91506020830135801515811461137257600080fd5b809150509250929050565b6000806040838503121561139057600080fd5b611399836110d6565b946020939093013593505050565b600080604083850312156113ba57600080fd5b823567ffffffffffffffff808211156113d257600080fd5b818501915085601f8301126113e657600080fd5b813560206113f3826117eb565b6040516114008282611862565b8381528281019150858301600585901b870184018b101561142057600080fd5b600096505b8487101561144a57611436816110d6565b835260019690960195918301918301611425565b509650508601359250508082111561146157600080fd5b5061146e858286016110f2565b9150509250929050565b60006020828403121561148a57600080fd5b81356111f881611992565b6000602082840312156114a757600080fd5b81516111f881611992565b600080602083850312156114c557600080fd5b823567ffffffffffffffff808211156114dd57600080fd5b818501915085601f8301126114f157600080fd5b81358181111561150057600080fd5b86602082850101111561151257600080fd5b60209290920196919550909350505050565b60006020828403121561153657600080fd5b5035919050565b6000806040838503121561155057600080fd5b82359150611229602084016110d6565b600081518084526020808501945080840160005b8381101561159057815187529582019590820190600101611574565b509495945050505050565b6000815180845260005b818110156115c1576020818501810151868301820152016115a5565b818111156115d3576000602083870101525b50601f01601f19169290920160200192915050565b6001600160a01b0386811682528516602082015260a06040820181905260009061161490830186611560565b82810360608401526116268186611560565b9050828103608084015261163a818561159b565b98975050505050505050565b6001600160a01b03868116825285166020820152604081018490526060810183905260a0608082018190526000906116809083018461159b565b979650505050505050565b6020815260006111f86020830184611560565b6040815260006116b16040830185611560565b82810360208401526116c38185611560565b95945050505050565b6020815260006111f8602083018461159b565b60208082526028908201527f455243313135353a204552433131353552656365697665722072656a656374656040820152676420746f6b656e7360c01b606082015260800190565b60208082526025908201527f455243313135353a207472616e7366657220746f20746865207a65726f206164604082015264647265737360d81b606082015260800190565b6020808252602a908201527f455243313135353a20696e73756666696369656e742062616c616e636520666f60408201526939103a3930b739b332b960b11b606082015260800190565b6020808252818101527f4f776e61626c653a2063616c6c6572206973206e6f7420746865206f776e6572604082015260600190565b600067ffffffffffffffff821115611805576118056118d6565b5060051b60200190565b60008219821115611822576118226118aa565b500190565b600181811c9082168061183b57607f821691505b6020821081141561185c57634e487b7160e01b600052602260045260246000fd5b50919050565b601f8201601f1916810167ffffffffffffffff81118282101715611888576118886118d6565b6040525050565b60006000198214156118a3576118a36118aa565b5060010190565b634e487b7160e01b600052601160045260246000fd5b634e487b7160e01b600052603260045260246000fd5b634e487b7160e01b600052604160045260246000fd5b600060033d11156119055760046000803e5060005160e01c5b90565b600060443d10156119165790565b6040516003193d81016004833e81513d67ffffffffffffffff816024840111818411171561194657505050505090565b828501915081518181111561195e5750505050505090565b843d87010160208285010111156119785750505050505090565b61198760208286010187611862565b509095945050505050565b6001600160e01b03198116811461096457600080fdfea26469706673582212209240f86d842d37c1aaf1b29f9be975b3457fc98ef97c2857221cdfaafcdfadc764736f6c63430008070033",
  "devdoc": {
    "kind": "dev",
    "methods": {
      "balanceOf(address,uint256)": {
        "details": "See {IERC1155-balanceOf}. Requirements: - `account` cannot be the zero address."
      },
      "balanceOfBatch(address[],uint256[])": {
        "details": "See {IERC1155-balanceOfBatch}. Requirements: - `accounts` and `ids` must have the same length."
      },
      "isApprovedForAll(address,address)": {
        "details": "See {IERC1155-isApprovedForAll}."
      },
      "owner()": {
        "details": "Returns the address of the current owner."
      },
      "renounceOwnership()": {
        "details": "Leaves the contract without owner. It will not be possible to call `onlyOwner` functions anymore. Can only be called by the current owner. NOTE: Renouncing ownership will leave the contract without an owner, thereby removing any functionality that is only available to the owner."
      },
      "safeBatchTransferFrom(address,address,uint256[],uint256[],bytes)": {
        "details": "See {IERC1155-safeBatchTransferFrom}."
      },
      "safeTransferFrom(address,address,uint256,uint256,bytes)": {
        "details": "See {IERC1155-safeTransferFrom}."
      },
      "setApprovalForAll(address,bool)": {
        "details": "See {IERC1155-setApprovalForAll}."
      },
      "supportsInterface(bytes4)": {
        "details": "See {IERC165-supportsInterface}."
      },
      "transferOwnership(address)": {
        "details": "Transfers ownership of the contract to a new account (`newOwner`). Can only be called by the current owner."
      }
    },
    "version": 1
  },
  "userdoc": {
    "kind": "user",
    "methods": {},
    "version": 1
  },
  "storageLayout": {
    "storage": [
      {
        "astId": 175,
        "contract": "contracts/UpvoteERC1155.sol:UpvoteERC1155",
        "label": "_balances",
        "offset": 0,
        "slot": "0",
        "type": "t_mapping(t_uint256,t_mapping(t_address,t_uint256))"
      },
      {
        "astId": 181,
        "contract": "contracts/UpvoteERC1155.sol:UpvoteERC1155",
        "label": "_operatorApprovals",
        "offset": 0,
        "slot": "1",
        "type": "t_mapping(t_address,t_mapping(t_address,t_bool))"
      },
      {
        "astId": 183,
        "contract": "contracts/UpvoteERC1155.sol:UpvoteERC1155",
        "label": "_uri",
        "offset": 0,
        "slot": "2",
        "type": "t_string_storage"
      },
      {
        "astId": 53,
        "contract": "contracts/UpvoteERC1155.sol:UpvoteERC1155",
        "label": "_owner",
        "offset": 0,
        "slot": "3",
        "type": "t_address"
      },
      {
        "astId": 3248,
        "contract": "contracts/UpvoteERC1155.sol:UpvoteERC1155",
        "label": "tokenIdCounter",
        "offset": 0,
        "slot": "4",
        "type": "t_uint256"
      },
      {
        "astId": 3256,
        "contract": "contracts/UpvoteERC1155.sol:UpvoteERC1155",
        "label": "daoHunt",
        "offset": 0,
        "slot": "5",
        "type": "t_address"
      },
      {
        "astId": 3258,
        "contract": "contracts/UpvoteERC1155.sol:UpvoteERC1155",
        "label": "commonURI",
        "offset": 0,
        "slot": "6",
        "type": "t_string_storage"
      }
    ],
    "types": {
      "t_address": {
        "encoding": "inplace",
        "label": "address",
        "numberOfBytes": "20"
      },
      "t_bool": {
        "encoding": "inplace",
        "label": "bool",
        "numberOfBytes": "1"
      },
      "t_mapping(t_address,t_bool)": {
        "encoding": "mapping",
        "key": "t_address",
        "label": "mapping(address => bool)",
        "numberOfBytes": "32",
        "value": "t_bool"
      },
      "t_mapping(t_address,t_mapping(t_address,t_bool))": {
        "encoding": "mapping",
        "key": "t_address",
        "label": "mapping(address => mapping(address => bool))",
        "numberOfBytes": "32",
        "value": "t_mapping(t_address,t_bool)"
      },
      "t_mapping(t_address,t_uint256)": {
        "encoding": "mapping",
        "key": "t_address",
        "label": "mapping(address => uint256)",
        "numberOfBytes": "32",
        "value": "t_uint256"
      },
      "t_mapping(t_uint256,t_mapping(t_address,t_uint256))": {
        "encoding": "mapping",
        "key": "t_uint256",
        "label": "mapping(uint256 => mapping(address => uint256))",
        "numberOfBytes": "32",
        "value": "t_mapping(t_address,t_uint256)"
      },
      "t_string_storage": {
        "encoding": "bytes",
        "label": "string",
        "numberOfBytes": "32"
      },
      "t_uint256": {
        "encoding": "inplace",
        "label": "uint256",
        "numberOfBytes": "32"
      }
    }
  }
}